:100000000C9435000C945D000C945D000C945D0024
:100010000C945D000C945D000C945D000C945D00EC
:100020000C945D000C945D000C945D000C945D00DC
:100030000C945D000C945D000C945D000C945D00CC
:100040000C94C7000C945D000C942D020C9470026B
:100050000C945D000C945D000C945D000C945D00AC
:100060000C945D000C945D002C0311241FBECFEF97
:10007000D8E0DEBFCDBF11E0A0E0B1E0ECE4F8E0F5
:1000800002C005900D92A232B107D9F711E0A2E2A9
:10009000B1E001C01D92A03EB107E1F710E0CAE651
:1000A000D0E004C02297FE010E942004C836D10788
:1000B000C9F70E94EF030C9424040C94000040E85C
:1000C00055E260E070E086E391E00E94AB0260E000
:1000D00071E086E391E00C94C00380912C018111C2
:1000E00050C086E391E00E94950118161906C4F4E9
:1000F00080912B018830A8F786E391E00E94C2012D
:1001000090912B01E92FF0E0EE5DFE4F80839F5F21
:1001100090932B01E92FF0E0EE5DFE4F1082E1CFCE
:10012000809122018C3669F580912301813649F551
:10013000809124018D3629F580912501813609F5BC
:10014000809126018C36E9F4809127018536C9F427
:10015000809128018237A9F480912901813689F4A0
:1001600062E271E086E391E00E94DD036BE071E002
:1001700086E391E00E94DD0310922B0181E08093E1
:100180002C0164E670E080E090E00C9434011F9252
:100190000F920FB60F9211242F933F938F939F933B
:1001A000AF93BF9380912E0190912F01A0913001C8
:1001B000B091310130912D0123E0230F2D3720F430
:1001C0000196A11DB11D05C026E8230F0296A11DB1
:1001D000B11D20932D0180932E0190932F01A093A8
:1001E0003001B09331018091320190913301A0919F
:1001F0003401B09135010196A11DB11D80933201EA
:1002000090933301A0933401B0933501BF91AF9126
:100210009F918F913F912F910F900FBE0F901F9044
:1002200018953FB7F8948091320190913301A091D5
:100230003401B091350126B5A89B05C02F3F19F0B8
:100240000196A11DB11D3FBF6627782F892F9A2FD8
:10025000620F711D811D911D42E0660F771F881F7F
:10026000991F4A95D1F70895CF92DF92EF92FF92AE
:10027000CF93DF936B017C010E941101EB01C1144C
:10028000D104E104F10479F00E9411016C1B7D0B93
:10029000683E7340A0F381E0C81AD108E108F10874
:1002A000C851DC4FECCFDF91CF91FF90EF90DF9002
:1002B000CF900895789484B5826084BD84B58160C0
:1002C00084BD85B5826085BD85B5816085BDEEE65E
:1002D000F0E0808181608083E1E8F0E0108280813D
:1002E00082608083808181608083E0E8F0E08081AB
:1002F00081608083E1EBF0E0808184608083E0EBCB
:10030000F0E0808181608083EAE7F0E080818460B2
:10031000808380818260808380818160808380810E
:10032000806880831092C1000895FC012485358582
:10033000F901E05CFF4F80819181F901EE5BFF4F95
:1003400020813181821B930B8F7399270895FC01C3
:1003500084859585FC01E05CFF4F40815181FC0163
:10036000EE5BFF4F208131814217530741F001902E
:10037000F081E02DE80FF91F808190E008958FEF64
:100380009FEF0895FC0184859585FC01E05CFF4F9B
:1003900040815181FC01EE5BFF4F2081318142178A
:1003A000530779F0A081B181A80FB91F8C912081EA
:1003B00031812F5F3F4F2F7333273183208390E0AC
:1003C00008958FEF9FEF0895FC0181A1882329F004
:1003D000A489B5898C9186FFFBCF11A20895CF9394
:1003E000DF93FC0126853785D901A05CBF4F8D9135
:1003F0009C91119701968F739927E901CE5BDF4F8E
:100400004881598184179507D9F30D90BC91A02D8F
:10041000A20FB31F6C93A685B785A05CBF4F119642
:100420009C938E93A689B7892C9181E090E0078CEC
:1004300002C0880F991F0A94E2F7282B2C9381E0C1
:1004400081A30488F589E02D80818064808381E028
:1004500090E0DF91CF91089508951F920F920FB60B
:100460000F9211242F933F934F938F939F93EF936A
:10047000FF938091C00082FD1CC04091C600809116
:10048000DC019091DD0101968F7399272091DE01A7
:100490003091DF018217930771F0E091DC01F09158
:1004A000DD01E456FE4F40839093DD018093DC0133
:1004B00002C08091C600FF91EF919F918F914F9163
:1004C0003F912F910F900FBE0F901F90189586E3CC
:1004D00091E00E949501892B11F00C942C02089553
:1004E0001F920F920FB60F9211242F933F938F9369
:1004F0009F93EF93FF932091980130919901809100
:100500009A0190919B012817390731F48091C1001D
:100510008F7D8093C10014C0E0919A01F0919B01FE
:10052000E85AFE4F208180919A0190919B0101969B
:100530008F73992790939B0180939A012093C60013
:10054000FF91EF919F918F913F912F910F900FBE4F
:100550000F901F901895CF92DF92EF92FF92CF935A
:10056000DF93EC016A017B01411581EE58076105BB
:100570007105F9F0EC89FD8981E090E008A002C0E6
:10058000880F991F0A94E2F7808360E079E08DE399
:1005900090E0A70196010E94FC0321503109410916
:1005A00051095695479537952795211580E13807CC
:1005B00098F0EC89FD89108260E874E88EE190E0A3
:1005C000A70196010E94FC032150310941095109FC
:1005D0005695479537952795E889F9893083EA89B3
:1005E000FB89208319A2EE89FF89408181E090E098
:1005F0009C010C8C02C0220F331F0A94E2F7422B9D
:100600004083EE89FF8940819C010D8C02C0220F3E
:10061000331F0A94E2F7422B4083EE89FF89408121
:100620009C010E8C02C0220F331F0A94E2F7422B6A
:100630004083EE89FF8920810F8C02C0880F991FAB
:100640000A94E2F7809582238083DF91CF91FF9017
:10065000EF90DF90CF9008951092390110923801F9
:1006600088EE93E0A0E0B0E080933A0190933B01E4
:10067000A0933C01B0933D0186E191E09093370156
:10068000809336018CE991E090934301809342017D
:1006900088E591E0909345018093440185EC90E0DA
:1006A000909347018093460184EC90E09093490138
:1006B0008093480180EC90E090934B0180934A0135
:1006C00081EC90E090934D0180934C0182EC90E09E
:1006D00090934F0180934E0186EC90E090935101EE
:1006E0008093500184E08093520183E08093530112
:1006F00087E08093540185E08093550181E08093E9
:1007000056010895CF92DF92EF92FF920F931F93BD
:10071000CF93DF936C017A01EB01E60EF71E00E048
:1007200010E0CE15DF0561F06991D601ED91FC91E5
:100730000190F081E02DC6010995080F191FF1CF36
:10074000C801DF91CF911F910F91FF90EF90DF9043
:10075000CF9008956115710581F0DB010D900020A7
:10076000E9F7AD0141505109461B570BDC01ED91F2
:10077000FC910280F381E02D099480E090E00895DF
:100780000C94AA03DC01ED91FC910190F081E02D25
:1007900009940F931F93CF93DF93EC016DE00E94B8
:1007A000C2038C016AE0CE010E94C203800F911F38
:1007B000DF91CF911F910F9108950F931F93CF93C6
:1007C000DF93EC010E94AA038C01CE010E94C903B1
:1007D000800F911FDF91CF911F910F9108950E947B
:1007E0005A010E945F00C7E6D2E00E946D00209788
:1007F000E1F30E946702F9CFA1E21A2EAA1BBB1BEC
:10080000FD010DC0AA1FBB1FEE1FFF1FA217B307DC
:10081000E407F50720F0A21BB30BE40BF50B661FF2
:10082000771F881F991F1A9469F7609570958095B6
:1008300090959B01AC01BD01CF010895EE0FFF1F04
:0C0840000590F491E02D0994F894FFCF8E
:10084C0050617373776F72643A200042656E617207
:10085C00210000000000EF0182039501C201A701F5
:02086C00E401A5
:00000001FF
